:0400000007EF00F016
:0A00080079822FED0AF09AEF14F050
:10100000003738392F3435362A3132332D23303DED
:101010002B54656D7065726174757265313A20008C
:1010200054656D7065726174757265323A20002581
:0310300069000054
:101034004A50800B536E4A504A24596E49AE25EFEC
:1010440008F027EF08F028EF08F059805950D8B479
:101054002EEF08F030EF08F043EF08F05928D8A439
:1010640036EF08F038EF08F040EF08F0000E476E56
:10107400000E486E000E496E000E4A6E498E4BEF0C
:1010840008F0000E476E000E486E000E496E000E0A
:101094004A6E4E50800B531A4E504E24586E4DAE2D
:1010A40056EF08F058EF08F059EF08F05880585000
:1010B400D8B45FEF08F061EF08F074EF08F0582837
:1010C400D8A467EF08F069EF08F071EF08F0000E9C
:1010D4004B6E000E4C6E000E4D6E000E4E6E4D8E1D
:1010E4007CEF08F0000E4B6E000E4C6E000E4D6E41
:1010F400000E4E6E5850D8B482EF08F084EF08F01A
:101104008CEF08F05950D8A48AEF08F08CEF08F05F
:1011140096EF08F0000E476E000E486E000E496E02
:10112400000E4A6E2EEF0AF04D504702F3CF5EF0E8
:10113400F4CF5FF05E50546E556A566A576A5F503A
:101144005A6E5B6A5C6A5D6A4C504802F3CF5EF08B
:10115400F4CF5FF05E505426000E552256225722DB
:101164005F505A26000E5B225C225D224B504902DE
:10117400F3CF5EF0F4CF5FF05E505426000E55229C
:10118400562257225F505A26000E5B225C225D22B3
:1011940056C057F055C056F054C055F0546A4B50E1
:1011A4004802F3CF5EF0F4CF5FF05E5054265F50F8
:1011B4005522000E5622000E57224C504702F3CF00
:1011C4005EF0F4CF5FF05E5054265F505522000E5F
:1011D4005622000E572256C057F055C056F054C040
:1011E40055F0546A4B504702F3CF5EF0F4CF5FF0F2
:1011F4005E5054265F505522000E5622000E572290
:101204004D504802F3CF5EF0F4CF5FF05E505A26A3
:101214005F505B22000E5C22000E5D224C5049029E
:10122400F3CF5EF0F4CF5FF05E505A265F505B223E
:10123400000E5C22000E5D224D504902F3CF5EF099
:10124400F4CF5FF05E504F6E5F50506E516A526A39
:1012540051C052F050C051F04FC050F04F6A4F503F
:101264005A2650505B2251505C2252505D2254C089
:101274004FF055C050F056C051F057C052F0190EFF
:1012840049EF09F0D8905232513250324F32E82EA1
:1012940044EF09F04F505A2650505B2251505C22C3
:1012A40052505D2256C057F055C056F054C055F008
:1012B400546A585059C04FF0506A4F26000E5022BD
:1012C400820E4F245E6EFF0E50205F6E7FEF09F09A
:1012D400D8905A365B365C365D3657AE74EF09F0FB
:1012E40076EF09F077EF09F05A80D89054365536E6
:1012F400563657365E06D8A05F065CAE84EF09F01A
:1013040086EF09F06AEF09F0000E586E57AE8DEFC4
:1013140009F08FEF09F0B3EF09F0FF0E54144F6E8C
:10132400FF0E5514506EFF0E5614516E7F0E571457
:10133400526E4F50501051105210D8B4A4EF09F00F
:10134400A6EF09F0AAEF09F0010E586EB3EF09F009
:101354005AA0AFEF09F0B1EF09F0B3EF09F0A6EF2F
:1013640009F05850D8B4B9EF09F0BBEF09F0DFEF3A
:1013740009F0010E5A26000E5B225C225D225DA05C
:10138400C6EF09F0C8EF09F0DFEF09F05AC04FF0DB
:101394005BC050F05CC051F05DC052F05234523228
:1013A400513250324F324FC05AF050C05BF051C0EE
:1013B4005CF052C05DF05E4A5F2A5FBEEAEF09F05E
:1013C4005F5008E15E28D8A0EAEF09F0ECEF09F0DD
:1013D400F6EF09F0000E5A6E000E5B6E800E5C6E26
:1013E4007F0E5D6E24EF0AF05FBE03EF0AF05F50DC
:1013F40006E15E04D8B001EF0AF003EF0AF00FEF44
:101404000AF0000E5A6E000E5B6E000E5C6E000E4B
:101414005D6E000E536E24EF0AF05EC059F0FF0EAD
:101424005A16FF0E5B167F0E5C16000E5D1659A051
:101434001EEF0AF020EF0AF021EF0AF05C8ED8903C
:1014440059305D6E53505D125AC047F05BC048F08E
:101454005CC049F05DC04AF012000600F2A835EF06
:101464000AF037EF0AF040EF0AF0F2A23CEF0AF07C
:101474003EEF0AF040EF0AF085EC17F0F0A645EFD6
:101484000AF047EF0AF050EF0AF0F0A04CEF0AF030
:101494004EEF0AF050EF0AF083EC17F0F0A855EF86
:1014A4000AF057EF0AF060EF0AF0F0A25CEF0AF0DE
:1014B4005EEF0AF060EF0AF081EC17F0F2A665EF38
:1014C4000AF067EF0AF082EF0AF0F2A06CEF0AF07C
:1014D4006EEF0AF082EF0AF081A873EF0AF075EF5D
:1014E4000AF082EF0AF07404D8A47BEF0AF07DEFCF
:1014F4000AF082EF0AF0000E746E000E4FEC17F043
:10150400F2A687EF0AF089EF0AF0A4EF0AF0F2A03E
:101514008EEF0AF090EF0AF0A4EF0AF081B895EF8D
:101524000AF097EF0AF0A4EF0AF07450D8A49DEFE4
:101534000AF09FEF0AF0A4EF0AF0010E746E010E98
:101544004FEC17F0F2A6A9EF0AF0ABEF0AF0C6EFE2
:101554000AF0F2A0B0EF0AF0B2EF0AF0C6EF0AF018
:1015640081AAB7EF0AF0B9EF0AF0C6EF0AF07304E4
:10157400D8A4BFEF0AF0C1EF0AF0C6EF0AF0000EDC
:10158400736E000E42EC17F0F2A6CBEF0AF0CDEF2B
:101594000AF0E8EF0AF0F2A0D2EF0AF0D4EF0AF072
:1015A400E8EF0AF081BAD9EF0AF0DBEF0AF0E8EFCE
:1015B4000AF07350D8A4E1EF0AF0E3EF0AF0E8EF81
:1015C4000AF0010E736E010E42EC17F0F2A6EDEF75
:1015D4000AF0EFEF0AF00AEF0BF0F2A0F4EF0AF0D2
:1015E400F6EF0AF00AEF0BF081ACFBEF0AF0FDEF27
:1015F4000AF00AEF0BF07204D8A403EF0BF005EF26
:101604000BF00AEF0BF0000E726E000E35EC17F0C3
:10161400F2A60FEF0BF011EF0BF02CEF0BF0F2A092
:1016240016EF0BF018EF0BF02CEF0BF081BC1DEF55
:101634000BF01FEF0BF02CEF0BF07250D8A425EF3A
:101644000BF027EF0BF02CEF0BF0010E726E010E76
:1016540035EC17F0F2A631EF0BF033EF0BF04EEF51
:101664000BF0F2A038EF0BF03AEF0BF04EEF0BF06B
:1016740081AE3FEF0BF041EF0BF04EEF0BF0710436
:10168400D8A447EF0BF049EF0BF04EEF0BF0000E30
:10169400716E000E28EC17F0F2A653EF0BF055EF25
:1016A4000BF070EF0BF0F2A05AEF0BF05CEF0BF0C5
:1016B40070EF0BF081BE61EF0BF063EF0BF070EF96
:1016C4000BF07150D8A469EF0BF06BEF0BF070EFD7
:1016D4000BF0010E716E010E28EC17F09DAC75EF46
:1016E4000BF077EF0BF080EF0BF09EAC7CEF0BF080
:1016F4007EEF0BF080EF0BF08DEC17F0F2AA85EF84
:101704000BF087EF0BF090EF0BF0F2A48CEF0BF0E3
:101714008EEF0BF090EF0BF070EC17F09DA095EFAF
:101724000BF097EF0BF0A0EF0BF09EA09CEF0BF0EB
:101734009EEF0BF0A0EF0BF06AEC17F09DA2A5EF63
:101744000BF0A7EF0BF0B0EF0BF09EA2ACEF0BF099
:10175400AEEF0BF0B0EF0BF076EC17F0A0A2B5EF04
:101764000BF0B7EF0BF0C0EF0BF0A1A2BCEF0BF046
:10177400BEEF0BF0C0EF0BF064EC17F09DA8C5EFC3
:101784000BF0C7EF0BF0D0EF0BF09EA8CCEF0BF0F3
:10179400CEEF0BF0D0EF0BF087EC17F09DAAD5EF4E
:1017A4000BF0D7EF0BF0E0EF0BF09EAADCEF0BF0A1
:1017B400DEEF0BF0E0EF0BF092EC17F09DA6E5EFF7
:1017C4000BF0E7EF0BF0F0EF0BF09EA6ECEF0BF055
:1017D400EEEF0BF0F0EF0BF07DEC17F0A0A6F5EFB9
:1017E4000BF0F7EF0BF000EF0CF0A1A6FCEF0BF001
:1017F400FEEF0BF000EF0CF07FEC17F09DA605EF69
:101804000CF007EF0CF010EF0CF09EA60CEF0CF0B0
:101814000EEF0CF010EF0CF091EC17F09DA415EF07
:101824000CF017EF0CF020EF0CF09EA41CEF0CF062
:101834001EEF0CF020EF0CF08BEC17F0A0A025EFBE
:101844000CF027EF0CF030EF0CF0A1A02CEF0CF013
:101854002EEF0CF030EF0CF089EC17F079921100B8
:101864007AEC17F0F30E476E9BEC10F0EC0E3C6E26
:10187400EFEC12F0770E446ED5EC16F0750E446E54
:10188400D5EC16F0F30E4B6E020E4C6E010E4D6E3F
:10189400110E4E6E4E50D8A4100E4F6E9AEC13F0EB
:1018A400F30E4B6E030E4C6E010E4D6E200E4E6EFB
:1018B4004E50D8A4100E4F6E9AEC13F0F30E506EE7
:1018C400020E516E110E526EE40E536E000E546EE3
:1018D40061EC14F0F30E506E030E516E110E526E45
:1018E400E40E536E000E546E61EC14F0EC0E406E78
:1018F400000E416E360E426ECBEC14F0EC0E406ED0
:10190400010E416E340E426ECBEC14F0F60E4B6EAB
:10191400280E4C6E9C0E4D6E400E4E6E36C039F045
:1019240037C03AF03B6A3C6A000E2DEC0EF039C029
:1019340047F03AC048F03BC049F03CC04AF01AECCA
:1019440008F047C060F048C061F049C062F04AC086
:1019540063F018EC10F060C0FBF061C0FCF0F60E10
:101964004B6E280E4C6E9C0E4D6E400E4E6E34C067
:1019740039F035C03AF03B6A3C6A000E2DEC0EF0AB
:1019840039C047F03AC048F03BC049F03CC04AF087
:101994001AEC08F047C060F048C061F049C062F03A
:1019A4004AC063F018EC10F060C0F9F061C0FAF0BE
:1019B400FBC039F0FCC03AF0000E3C6E0A0E3B6EE0
:1019C40027EC14F039C0FBF03AC0FCF0F9C039F050
:1019D400FAC03AF0000E3C6E0A0E3B6E27EC14F08F
:1019E40039C0F9F03AC0FAF0FBC066F0FCC067F009
:1019F400BF0E686E45EC13F0F9C066F0FAC067F0EC
:101A0400B80E686E45EC13F0F30E4B6E020E4C6E7E
:101A14000E0E4D6EBF0E4E6E4F6A9AEC13F0F30E1F
:101A24004B6E030E4C6E0E0E4D6EB80E4E6E4F6A1C
:101A34009AEC13F00001FC5109E1150EFB5DD8A0EE
:101A440026EF0DF028EF0DF02EEF0DF0770E416E1E
:101A540069EC16F032EF0DF0770E416E4DEC16F096
:101A64000001FA5109E11A0EF95DD8A03CEF0DF01E
:101A74003EEF0DF044EF0DF0750E416E69EC16F07B
:101A840078EF0CF0750E416E4DEC16F078EF0CF01B
:101A940007EF00F04450D96EDA6ADFCFF6FF100E7C
:101AA400F76EF86A0800F550250AD8A45CEF0DF02B
:101AB4005EEF0DF01AEF0EF04450D96EDA6ADF2AA9
:101AC400000E0001A76F000EA66FA6C02BF0A86938
:101AD400A9694450D96EDA6ADF50486E48C0F6FFEF
:101AE400100EF76EF86A0800F550640AD8B47DEF5A
:101AF4000DF07FEF0DF08EEF0DF048C0F6FF100EE5
:101B0400F76EF86A0800F550690AD8A48CEF0DF056
:101B14008EEF0DF014EF0EF04550D96EDA6A020E16
:101B2400DF26DF5CD96EDA6ADECF49F0DECF4AF019
:101B34004450D96EDA6A4828DF6E200E4D6E4ABED4
:101B4400A6EF0DF0A9EF0DF0010EAAEF0DF0000EB7
:101B5400476E4D064D50800FD96EDA6A49C039F090
:101B64004AC03AF0000E3C6E0A0E3B6E97EC12F03F
:101B740039C03FF03AC040F0A1EC16F03F50300FAE
:101B8400DF6E49C039F04AC03AF0000E3C6E0A0ECE
:101B94003B6E7CEC11F039C049F03AC04AF0495030
:101BA4004A10D8B4D8EF0DF0DAEF0DF0E2EF0DF0F3
:101BB4004D50D8A4E0EF0DF0E2EF0DF0ABEF0DF0D7
:101BC4004D50D8B4E8EF0DF0EAEF0DF009EF0EF048
:101BD4004750D8B4F0EF0DF0F2EF0DF009EF0EF02E
:101BE4004D064D50800FD96EDA6A2D0EDF6E09EF67
:101BF4000EF04D50800FD96EDA6ADF50466E4650B3
:101C0400396E3A6A43C03BF0DEEC11F04D2A200EE7
:101C14004D18D8A410EF0EF012EF0EF0FBEF0DF0FC
:101C24002CEF0EF04450D96EDA6ADF2A2CEF0EF056
:101C34004450D96EDA6ADFCFF6FF100EF76EF86AF9
:101C44000800F550396E3A6A43C03BF0DEEC11F0FF
:101C540014EF0EF01200416E4150D8B434EF0EF080
:101C640036EF0EF058EF0EF03CBE3DEF0EF03BEFBA
:101C74000EF058EF0EF039C03DF03AC03EF03BC0D4
:101C84003FF03CC040F03D1E3E1E3F1E401E3D2A1C
:101C9400000E3E223F2240223DC043F03EC044F0AD
:101CA4003FC045F040C046F060EF0EF039C043F04D
:101CB4003AC044F03BC045F03CC046F039503A10BD
:101CC4003B103C10D8A469EF0EF06BEF0EF075EFEB
:101CD4000EF0000E396E000E3A6E000E3B6E000ED2
:101CE4003C6E06EF0FF0960E426E7FEF0EF0422A26
:101CF400D8904632453244324332000E43143D6E8E
:101D0400000E44143E6E000E45143F6EFE0E461443
:101D1400406E3D503E103F104010D8A494EF0EF09A
:101D240096EF0EF079EF0EF0A4EF0EF0422A010EBA
:101D34004326000E442245224622D890463245329C
:101D440044324332000E43143D6E000E44143E6E82
:101D5400000E45143F6EFF0E4614406E3D503E107B
:101D64003F104010D8A4B9EF0EF0BBEF0EF098EF7F
:101D74000EF0C3EF0EF04206D89043364436453693
:101D8400463645BEC8EF0EF0CAEF0EF0D2EF0EF0A5
:101D9400020E4260D0EF0EF0D2EF0EF0BDEF0EF067
:101DA40042B0D7EF0EF0D9EF0EF0DAEF0EF0459E09
:101DB400D890423242C03DF03E6A3F6A406A3DC01C
:101DC40040F03F6A3E6A3D6A3D5043123E50441221
:101DD4003F504512405046124150D8B4F4EF0EF033
:101DE400F6EF0EF0FEEF0EF03CBEFDEF0EF0FBEF53
:101DF4000EF0FEEF0EF0468E43C039F044C03AF0C8
:101E040045C03BF046C03CF01200010E3F6E395015
:101E1400D8B40FEF0FF011EF0FF021EF0FF039509E
:101E2400D96EDA6ADF30E832E832070B3A6E070E11
:101E34003A641FEF0FF021EF0FF078EF0FF0000E70
:101E44003F6E8EEF0FF03950D96EDA6ADF30E83228
:101E5400E832070B3A6E010E3B6E3A2A34EF0FF06C
:101E6400D8903B363A2E32EF0FF03B50FF0A3C6ECF
:101E74003950D96EDA6ADF50070B020DF350DA0FCE
:101E8400D96EDA6ADECF3DF0DDCF3EF03DC0D9FF3A
:101E94003EC0DAFF3C50DF168EEF0FF03950D96E9A
:101EA400DA6ADF30E832E832070B3A6E010E3B6E35
:101EB4003A2A5FEF0FF0D8903B363A2E5DEF0FF0E1
:101EC4003950D96EDA6ADF50070B020DF350DA0F7E
:101ED400D96EDA6ADECF3CF0DDCF3DF03CC0D9FFED
:101EE4003DC0DAFF3B50DF128EEF0FF03950D96E50
:101EF400DA6ADFBC80EF0FF083EF0FF0010E84EF9E
:101F04000FF0000E000AD8B425EF0FF0010AD8B480
:101F140050EF0FF021EF0FF03F501200010E406E12
:101F24003950D8B498EF0FF09AEF0FF0AAEF0FF0F2
:101F34003950D96EDA6ADF30E832E832070B3B6E8B
:101F4400070E3B64A8EF0FF0AAEF0FF001EF10F0BB
:101F5400000E406E16EF10F03950D96EDA6ADF3099
:101F6400E832E832070B3B6E010E3C6E3B2ABDEFB4
:101F74000FF0D8903C363B2EBBEF0FF03C50FF0ADD
:101F84003D6E3950D96EDA6ADF50070B020DF350FB
:101F9400D00FD96EDA6ADECF3EF0DDCF3FF03EC01F
:101FA400D9FF3FC0DAFF3D50DF1616EF10F039506D
:101FB400D96EDA6ADF30E832E832070B3B6E010E85
:101FC4003C6E3B2AE8EF0FF0D8903C363B2EE6EF10
:101FD4000FF03950D96EDA6ADF50070B020DF35057
:101FE400D00FD96EDA6ADECF3DF0DDCF3EF03DC0D2
:101FF400D9FF3EC0DAFF3C50DF1216EF10F03A5022
:102004003B6E3C6A3C50000AD8B40BEF10F0AAEFC8
:102014000FF03B50000AD8B4AEEF0FF0010AD8B469
:10202400D9EF0FF0AAEF0FF040501200623463347E
:10203400696E6950D8A421EF10F023EF10F02DEF52
:1020440010F0000E606E000E616E000E626E000EE7
:10205400636E9AEF10F060C064F061C065F062C016
:1020640066F063C067F0200E3DEF10F0D890673241
:10207400663265326432E82E38EF10F06450686ED0
:10208400628EFF0E6016FF0E6116FF0E6216000EC2
:102094006316960E695E69BE54EF10F052EF10F0AD
:1020A4006AEF10F06950800A970FD8B05CEF10F017
:1020B4005EEF10F060EF10F023EF10F0D890633271
:1020C400623261326032693E60EF10F082EF10F0EC
:1020D4001F0E696470EF10F072EF10F07AEF10F0D9
:1020E40023EF10F0D89060366136623663366906A5
:1020F4006950D8A480EF10F082EF10F074EF10F064
:102104006850D8B488EF10F08AEF10F092EF10F016
:10211400631E621E611E606C000E612262226322D5
:1021240060C060F061C061F062C062F063C063F0DF
:102134001200000E496E4750D8A4A3EF10F0A5EF8B
:1021440010F0A9EF10F0000E4A6E0EEF11F047C028
:1021540041F0FBEC14F04A6E4728416EFBEC14F09E
:102164004A6E000E496E47504924020F416EFBEC43
:1021740014F0492A030E4964C2EF10F0C4EF10F0C2
:10218400B5EF10F01A0E486EF80EE82EFED7482E62
:10219400FCD700D047C044F0380E456E58EC15F01B
:1021A400070E486E7D0EE82EFED7482EFCD70000A1
:1021B40047C044F0380E456E58EC15F0320EE82E48
:1021C400FED747C044F0380E456E58EC15F047C0B2
:1021D40044F0010E456E58EC15F047C044F0020E71
:1021E400456E58EC15F047C044F0060E456E58ECA9
:1021F40015F047C044F00C0E456E58EC15F047C07E
:1022040044F0280E456E58EC15F047C044F0800E9B
:10221400456E58EC15F04A6E4A5012003B6E3AEF88
:1022240011F092807BEF11F092827BEF11F0928497
:102234007BEF11F092867BEF11F0928A7BEF11F025
:1022440096807BEF11F096827BEF11F096847BEF02
:1022540011F093847BEF11F093867BEF11F093825E
:102264007BEF11F093887BEF11F093807BEF11F0FB
:102274003B50396E3A6A3A50000AD8B444EF11F030
:102284007BEF11F03950000AD8B413EF11F0010AB2
:10229400D8B416EF11F0030AD8B419EF11F0010AFB
:1022A400D8B41CEF11F0070AD8B41FEF11F0010ADB
:1022B400D8B422EF11F0030AD8B425EF11F0010AC3
:1022C400D8B428EF11F00F0AD8B42BEF11F0010A9B
:1022D400D8B42EEF11F0030AD8B431EF11F0010A8B
:1022E400D8B434EF11F0070AD8B437EF11F07BEF0C
:1022F40011F01200000E3E6E3CBE85EF11F083EF2C
:1023040011F08BEF11F03B6C3C1ED8B03C2A010E4F
:102314003E6E3ABE92EF11F090EF11F098EF11F08B
:10232400396C3A1ED8B03A2A010E3E1A000E406E9D
:10233400000E3F6E3B503C10D8B4A3EF11F0A5EF54
:1023440011F0CDEF11F0010E3D6EADEF11F0D8900C
:102354003B363C363D2A3CAEB2EF11F0B4EF11F0FF
:10236400A9EF11F0D8903F3640363B50395C3C50D1
:102374003A58D8A0C0EF11F0C2EF11F0C7EF11F036
:102384003B50395E3C503A5A3F80D8903C323B3205
:102394003D2EB4EF11F03E50D8B4D3EF11F0D5EF89
:1023A40011F0D9EF11F03F6C401ED8B0402A3FC065
:1023B40039F040C03AF012003B50D8B4E4EF11F0C9
:1023C400E6EF11F0EEEF11F03B50D8A4ECEF11F072
:1023D400EEEF11F0F3EF11F039508FEC17F03AEF04
:1023E40012F03B50D96EDA6A0A0ED926DE50DE109E
:1023F400D8B4FFEF11F001EF12F01AEF12F03B50D6
:10240400D96EDA6A0A0ED9263B50E16EE26A030EEF
:10241400E126DE50E65CE650800A406EDE50800A1B
:102424004058D8B018EF12F01AEF12F03AEF12F049
:102434003B50D96EDA6A030ED926DECF3CF0DDCFED
:102444003DF03B50D96EDA6ADECF3EF0DDCF3FF08F
:102454003C503E24D96E3D503F20DA6E39C0DFFF38
:102464003B50D96EDA6A030ED926DE2A000EDD222D
:1024740012003950D8B441EF12F043EF12F04BEF91
:1024840012F03A50D8A449EF12F04BEF12F04FEF8C
:1024940012F0000E3E6E95EF12F03950D96EDA6AE2
:1024A400060ED926DFA259EF12F05BEF12F06EEFA1
:1024B40012F0C350C4CF3BF03C6A3BC03CF03B6AD3
:1024C4003B26000E3C223A50D96EDA6A3BC0DEFF4E
:1024D4003CC0DDFF93EF12F03950D96EDA6A060E74
:1024E400D926DFB278EF12F07AEF12F05BEF12F038
:1024F400C350C4CF3BF03C6A3BC03CF03B6A3B2634
:10250400000E3C22060E3D6E3C343C323B323D2EE6
:1025140086EF12F03A50D96EDA6A3BC0DEFF3CC057
:10252400DDFF010E3E6E3E501200000E3E6E3ABEBE
:10253400A0EF12F09EEF12F0A6EF12F0396C3A1EE3
:10254400D8B03A2A010E3E6E3CBEADEF12F0ABEFAE
:1025540012F0B1EF12F03B6C3C1ED8B03C2A3B5059
:102564003C10D8B4B8EF12F0BAEF12F0DEEF12F06C
:10257400010E3D6EC2EF12F0D8903B363C363D2A38
:102584003CAEC7EF12F0C9EF12F0BEEF12F03B50B1
:10259400395C3C503A58D8A0D2EF12F0D4EF12F084
:1025A400D8EF12F03B50395E3C503A5AD8903C3246
:1025B4003B323D2EC9EF12F03E50D8B4E4EF12F096
:1025C400E6EF12F0EAEF12F0396C3A1ED8B03A2A6C
:1025D40039C039F03AC03AF012003C50D8A4F5EFB3
:1025E40012F0F7EF12F0FBEF12F0000E3E6E43EF25
:1025F40013F0C2903C50D96EDA6A030ED926DF502C
:102604003D6E3D463D463D46C0503D18C70B3D1806
:10261400C06E3C50D96EDA6A040ED926DF503D6E86
:10262400C0503D18F80B3D18C06E3C50D96EDA6AA4
:10263400050ED926DF503D6E3D463D46C2503D183D
:10264400C30B3D18C26E3C50D96EDA6A050ED9260A
:10265400DF5010EC11F0F28EF28C9D8C9E9C3C505D
:10266400D96EDA6ADECF29F0DDCF2AF03CC039F02A
:10267400F1EC15F03CC039F0AEEC15F0C280010E5F
:102684003E6E3E501200010E0101066F21EE00F075
:10269400050EDE6AE806FDE2000E076F6850D8A456
:1026A40056EF13F058EF13F05CEF13F0000E066FC3
:1026B40098EF13F068C039F0000E3B6E200E3A6EAE
:1026C400000E3D6E030E3C6EEDEC16F06850D96EB4
:1026D400DA6A050ED926DF6A000E526E010E536EB9
:1026E4002F0E546E66C055F067C056F02FEC16F0EE
:1026F40089EF13F0000E0725D96EDA6A010EDA228B
:1027040068500725E16EE26ADFCFE7FF072B000E72
:1027140001010725D96EDA6A010EDA22DF50D8A446
:1027240096EF13F098EF13F07CEF13F006511200BC
:102734004B50D8A4A0EF13F0A2EF13F0A6EF13F0C0
:10274400000E506EE3EF13F04BC047F04CC048F05E
:102754004DC049F0E5EC13F0506ECAEF13F04BC0D6
:1027640044F04EC0F6FF4FC0F7FF000EF86E0F0E98
:10277400F76403D00800F55005D0F6CFE9FFF7CF92
:10278400EAFFEF50456E2AEC15F0506E4E4A4F2A80
:102794004EC0F6FF4FC0F7FF000EF86E0F0EF76441
:1027A40003D00800F55005D0F6CFE9FFF7CFEAFFD4
:1027B400EF500009D8A4E1EF13F0E3EF13F0B1EF09
:1027C40013F050501200010E4A6E490612EF14F035
:1027D40047C044F04950800F456E58EC15F04A6EDE
:1027E40025EF14F047C044F04950C00F456E58EC33
:1027F40015F04A6E25EF14F047C044F04950940F89
:10280400456E58EC15F04A6E25EF14F047C044F0BD
:102814004950D40F456E58EC15F04A6E25EF14F06C
:102824004850010AD8B4EAEF13F0030AD8B4F4EF1D
:1028340013F0010AD8B4FEEF13F0070AD8B408EF76
:1028440014F025EF14F04A501200000E3E6E000EF4
:102854003D6E3B503C10D8B432EF14F034EF14F01A
:102864005CEF14F0010E3F6E3CEF14F0D8903B3651
:102874003C363F2A3CAE41EF14F043EF14F038EFFE
:1028840014F0D8903D363E363B50395C3C503A58B3
:10289400D8A04FEF14F051EF14F056EF14F03B5062
:1028A400395E3C503A5A3D80D8903C323B323F2E00
:1028B40043EF14F03DC039F03EC03AF01200000E70
:1028C400566E5050D8A469EF14F06BEF14F06FEF0C
:1028D40014F0000E556E98EF14F050C044F05450AC
:1028E400080DF350400F456E58EC15F0000E566E6F
:1028F40050C044F053505624D96EDA6ADF50456E06
:102904002AEC15F0562A070E56648BEF14F08DEF5F
:1029140014F07AEF14F050C04BF051C04CF052C098
:102924004DF054C04EF011EC16F0556E5550120097
:10293400760EF66E2D0EF76E000EF86E00EEC6F0F3
:1029440010EE33F00900F5CFEEFFE550E150FAE167
:10295400B80EF66E2E0EF76E000EF86E00EE6AF0EC
:1029640010EE0FF00900F5CFEEFFE550E150FAE16B
:1029740000EE80F0460EEE6AE806FDE100EE01F09E
:10298400370EEE6AE806FDE179907992000132EFA4
:102994000CF04050D8B4D1EF14F0D3EF14F0DBEFC7
:1029A40014F04250D8A4D9EF14F0DBEF14F0DFEFA9
:1029B40014F0000E436EF9EF14F040C03CF041C037
:1029C4003DF085EC16F0436E40C039F017EC17F07B
:1029D400436EC2B2F0EF14F0F2EF14F0EBEF14F028
:1029E40040C039F042C03AF03BEC12F0436E435021
:1029F40012004150D8B401EF15F003EF15F013EFB6
:102A040015F04150D96EDA6ADF30E832E832070B4C
:102A1400426E070E426411EF15F013EF15F017EF35
:102A240015F0000E436E28EF15F041C039F007ECA5
:102A34000FF0436E41C039F04150D96EDA6A000E8E
:102A4400DFBE010E3A6E90EC0FF0436E435012005D
:102A54004450D8A430EF15F032EF15F036EF15F0EE
:102A6400000E466E56EF15F044C039F0010E3A6E72
:102A740090EC0FF0466E44C041F045380F0B426EA7
:102A840086EC15F0466E44C041F005EC17F0466E36
:102A940044C041F045C042F086EC15F0466E44C097
:102AA40041F005EC17F0466E465012004450D8A48D
:102AB4005EEF15F060EF15F064EF15F0000E466E52
:102AC40084EF15F044C039F0000E3A6E90EC0FF02C
:102AD400466E44C041F045380F0B426E86EC15F04B
:102AE400466E44C041F005EC17F0466E44C041F018
:102AF40045C042F086EC15F0466E44C041F005EC4A
:102B040017F0466E465012004150020F396E425083
:102B1400010B3A6E90EC0FF04150030F396ED890D0
:102B24004230010B3A6E90EC0FF04150040F396EB5
:102B34004240E8423F0B010B3A6E90EC0FF04150DB
:102B4400050F396E4238E8461F0B010B3A6E90ECC4
:102B54000FF0436E435012003950D96EDA6A060EF4
:102B6400D926DFA0B8EF15F0BAEF15F0BEEF15F0D7
:102B7400C18AC188D0EF15F03950D96EDA6A060ED1
:102B8400D926DFB0C8EF15F0CAEF15F0CEEF15F077
:102B9400C19AC198D0EF15F0C19AC19812004FC0E4
:102BA40051F0DDEF15F04EC043F0510E446E50C0AD
:102BB40045F04CEC0DF051C0F6FF100EF76EF86ABC
:102BC4000800F5500009D8A4EAEF15F0ECEF15F071
:102BD400D5EF15F0000E4F6E000E4E6E12003950F8
:102BE400D96EDA6A060ED926DFA2FBEF15F0FDEFE7
:102BF40015F000EF16F0C08E10EF16F03950D96EB4
:102C0400DA6A060ED926DFB20AEF16F00CEF16F0D8
:102C14000FEF16F0C09E10EF16F0C08E12004B504E
:102C2400D8A417EF16F019EF16F01DEF16F0000EEA
:102C34004F6E2DEF16F04BC047F04CC048F04DC01E
:102C440049F0E5EC13F04F6E4BC044F04EC045F034
:102C54002AEC15F04F6E4F501200550E596E52C0AB
:102C64005AF053C05BF0000E5E6E000E5D6E000EF7
:102C7400656E000E646E5A0E4E6E54C04FF0590EBF
:102C8400506ED1EC15F05D505224D96E5E50532035
:102C9400DA6EDF6A1200010E426E4150D8A455EF7D
:102CA40016F057EF16F05BEF16F0000E426E67EF6A
:102CB40016F041C039F0000E3A6E90EC0FF0412846
:102CC400396E000E3A6E90EC0FF042501200010E75
:102CD400426E4150D8A471EF16F073EF16F077EFFF
:102CE40016F0000E426E83EF16F041C039F0010E6B
:102CF4003A6E90EC0FF04128396E000E3A6E90EC6B
:102D04000FF0425012003C50D8A48BEF16F08DEF18
:102D140016F091EF16F0000E3F6E9FEF16F03DC0D7
:102D24003EF03E463E46C2503E18C30B3E18C26EAD
:102D34003D5010EC11F0010E3F6E3F50120040BEAA
:102D4400A6EF16F0A8EF16F0AEEF16F03FC03FF076
:102D540040C040F0BAEF16F03FC041F040C042F02E
:102D6400411E421E414A422A41C03FF042C040F047
:102D74001200800F810F820F830F840F890F8A0F37
:102D84008B0F8C0F8D0F920F930F940F950F960F3F
:102D94000303000E10100E000000000505000202DF
:052DA4000A121A222AA8
:102DAA00010E456E4450D8A4DDEF16F0DFEF16F0A1
:102DBA00E3EF16F0000E456EEBEF16F044C041F05B
:102DCA00FBEC14F04428416EFBEC14F04550120061
:102DDA0039C03EF0F7EF16F03E50D96EDA6A3AC0C3
:102DEA00DFFF3E2A3C06D8A03D063C2806E13D28E6
:102DFA00D8A402EF17F004EF17F0F1EF16F0120063
:102E0A004128396E010E3A6E90EC0FF000D000D0D6
:102E1A0000004128396E000E3A6E90EC0FF0426EB7
:102E2A00425012003950D8A41DEF17F01FEF17F0C7
:102E3A0023EF17F0000E3A6E26EF17F0C282010E4A
:102E4A003A6E3A501200386EF2903850D8A430EFE9
:102E5A0017F032EF17F034EF17F034EF17F01200D3
:102E6A00386EF2903850D8A43DEF17F03FEF17F0C4
:102E7A0041EF17F041EF17F01200386EF290385018
:102E8A00D8A44AEF17F04CEF17F04EEF17F04EEFB9
:102E9A0017F01200386EF2903850D8A457EF17F096
:102EAA0059EF17F05BEF17F05BEF17F01200685A53
:0D2EBA00622A1A622A01010101131B030B99
:102EC800A1920250B36E01C0B2FF12009E9004504E
:102ED800CF6E03C0CEFF1200F2940850D76E07C021
:102EE800D6FF12009E922CC0CCFF120090EC17F077
:102EF80012009E961200A1961200F0921200F09015
:102F08001200F29212009D981200A19012009E9455
:0E2F180012009E9C1200120012001200120005
:020000040020DA
:08000000FFFFFFFFFFFFFFFF00
:020000040030CA
:0E000000FF020912FF8181FF0FC00FE00F40C9
:00000001FF
